{
  "abi": [
    {
      "inputs": [
        {
          "internalType": "address",
          "name": "_nft",
          "type": "address"
        },
        {
          "internalType": "uint256",
          "name": "_nftId",
          "type": "uint256"
        },
        {
          "internalType": "uint256",
          "name": "_startingBid",
          "type": "uint256"
        }
      ],
      "stateMutability": "nonpayable",
      "type": "constructor"
    },
    {
      "anonymous": false,
      "inputs": [
        {
          "indexed": true,
          "internalType": "address",
          "name": "sender",
          "type": "address"
        },
        {
          "indexed": false,
          "internalType": "uint256",
          "name": "amount",
          "type": "uint256"
        }
      ],
      "name": "Bid",
      "type": "event"
    },
    {
      "anonymous": false,
      "inputs": [
        {
          "indexed": false,
          "internalType": "address",
          "name": "winner",
          "type": "address"
        },
        {
          "indexed": false,
          "internalType": "uint256",
          "name": "amount",
          "type": "uint256"
        }
      ],
      "name": "End",
      "type": "event"
    },
    {
      "anonymous": false,
      "inputs": [],
      "name": "Start",
      "type": "event"
    },
    {
      "anonymous": false,
      "inputs": [
        {
          "indexed": true,
          "internalType": "address",
          "name": "bidder",
          "type": "address"
        },
        {
          "indexed": false,
          "internalType": "uint256",
          "name": "amount",
          "type": "uint256"
        }
      ],
      "name": "Withdraw",
      "type": "event"
    },
    {
      "inputs": [],
      "name": "bid",
      "outputs": [],
      "stateMutability": "payable",
      "type": "function"
    },
    {
      "inputs": [
        {
          "internalType": "address",
          "name": "",
          "type": "address"
        }
      ],
      "name": "bids",
      "outputs": [
        {
          "internalType": "uint256",
          "name": "",
          "type": "uint256"
        }
      ],
      "stateMutability": "view",
      "type": "function"
    },
    {
      "inputs": [],
      "name": "end",
      "outputs": [],
      "stateMutability": "nonpayable",
      "type": "function"
    },
    {
      "inputs": [],
      "name": "endAt",
      "outputs": [
        {
          "internalType": "uint256",
          "name": "",
          "type": "uint256"
        }
      ],
      "stateMutability": "view",
      "type": "function"
    },
    {
      "inputs": [],
      "name": "ended",
      "outputs": [
        {
          "internalType": "bool",
          "name": "",
          "type": "bool"
        }
      ],
      "stateMutability": "view",
      "type": "function"
    },
    {
      "inputs": [],
      "name": "highestBid",
      "outputs": [
        {
          "internalType": "uint256",
          "name": "",
          "type": "uint256"
        }
      ],
      "stateMutability": "view",
      "type": "function"
    },
    {
      "inputs": [],
      "name": "highestBidder",
      "outputs": [
        {
          "internalType": "address",
          "name": "",
          "type": "address"
        }
      ],
      "stateMutability": "view",
      "type": "function"
    },
    {
      "inputs": [],
      "name": "nft",
      "outputs": [
        {
          "internalType": "contract IERC721",
          "name": "",
          "type": "address"
        }
      ],
      "stateMutability": "view",
      "type": "function"
    },
    {
      "inputs": [],
      "name": "nftId",
      "outputs": [
        {
          "internalType": "uint256",
          "name": "",
          "type": "uint256"
        }
      ],
      "stateMutability": "view",
      "type": "function"
    },
    {
      "inputs": [],
      "name": "seller",
      "outputs": [
        {
          "internalType": "address payable",
          "name": "",
          "type": "address"
        }
      ],
      "stateMutability": "view",
      "type": "function"
    },
    {
      "inputs": [],
      "name": "start",
      "outputs": [],
      "stateMutability": "nonpayable",
      "type": "function"
    },
    {
      "inputs": [],
      "name": "started",
      "outputs": [
        {
          "internalType": "bool",
          "name": "",
          "type": "bool"
        }
      ],
      "stateMutability": "view",
      "type": "function"
    },
    {
      "inputs": [],
      "name": "withdraw",
      "outputs": [],
      "stateMutability": "nonpayable",
      "type": "function"
    }
  ],
  "bytecode": {
    "object": "0x608060405234801561001057600080fd5b5060405161092038038061092083398101604081905261002f91610067565b600080546001600160a01b039094166001600160a01b03199485161790556001919091556002805490921633179091556005556100aa565b60008060006060848603121561007c57600080fd5b83516001600160a01b038116811461009357600080fd5b602085015160409095015190969495509392505050565b610867806100b96000396000f3fe6080604052600436106100c25760003560e01c806362ea82db1161007f578063be9a655511610059578063be9a655514610203578063c6bc518214610218578063d57bde791461022e578063efbe1c1c1461024457600080fd5b806362ea82db1461018c5780637cc3ae8c146101c757806391f90157146101dd57600080fd5b806308551a53146100c757806312fa6feb146101045780631998aeef146101335780631f2698ab1461013d5780633ccfd60b1461015757806347ccca021461016c575b600080fd5b3480156100d357600080fd5b506002546100e7906001600160a01b031681565b6040516001600160a01b0390911681526020015b60405180910390f35b34801561011057600080fd5b5060045461012390610100900460ff1681565b60405190151581526020016100fb565b61013b610259565b005b34801561014957600080fd5b506004546101239060ff1681565b34801561016357600080fd5b5061013b6103c3565b34801561017857600080fd5b506000546100e7906001600160a01b031681565b34801561019857600080fd5b506101b96101a73660046107da565b60066020526000908152604090205481565b6040519081526020016100fb565b3480156101d357600080fd5b506101b960035481565b3480156101e957600080fd5b506004546100e7906201000090046001600160a01b031681565b34801561020f57600080fd5b5061013b61043d565b34801561022457600080fd5b506101b960015481565b34801561023a57600080fd5b506101b960055481565b34801561025057600080fd5b5061013b610578565b60045460ff1661029e5760405162461bcd60e51b815260206004820152600b60248201526a1b9bdd081cdd185c9d195960aa1b60448201526064015b60405180910390fd5b60035442106102d75760405162461bcd60e51b8152602060048201526005602482015264195b99195960da1b6044820152606401610295565b600554341161031a5760405162461bcd60e51b815260206004820152600f60248201526e1d985b1d59480f081a1a59da195cdd608a1b6044820152606401610295565b6004546201000090046001600160a01b03161561036a576005546004546201000090046001600160a01b03166000908152600660205260408120805490919061036490849061080a565b90915550505b6004805462010000600160b01b03191633620100008102919091179091553460058190556040519081527fe684a55f31b79eca403df938249029212a5925ec6be8012e099b45bc1019e5d29060200160405180910390a2565b33600081815260066020526040808220805490839055905190929183156108fc02918491818181858888f19350505050158015610404573d6000803e3d6000fd5b5060405181815233907f884edad9ce6fa2440d8a54cc123490eb96d2768479d49ff9c7366125a94243649060200160405180910390a250565b60045460ff161561047a5760405162461bcd60e51b81526020600482015260076024820152661cdd185c9d195960ca1b6044820152606401610295565b6002546001600160a01b031633146104c15760405162461bcd60e51b815260206004820152600a6024820152693737ba1039b2b63632b960b11b6044820152606401610295565b6000546001546040516323b872dd60e01b815233600482015230602482015260448101919091526001600160a01b03909116906323b872dd90606401600060405180830381600087803b15801561051757600080fd5b505af115801561052b573d6000803e3d6000fd5b50506004805460ff191660011790555061054a90504262093a8061080a565b6003556040517f1b55ba3aa851a46be3b365aee5b5c140edd620d578922f3e8466d2cbd96f954b90600090a1565b60045460ff166105b85760405162461bcd60e51b815260206004820152600b60248201526a1b9bdd081cdd185c9d195960aa1b6044820152606401610295565b6003544210156105f65760405162461bcd60e51b81526020600482015260096024820152681b9bdd08195b99195960ba1b6044820152606401610295565b600454610100900460ff16156106365760405162461bcd60e51b8152602060048201526005602482015264195b99195960da1b6044820152606401610295565b6004805461ff00191661010017908190556201000090046001600160a01b0316156107165760005460048054600154604051632142170760e11b815230938101939093526001600160a01b0362010000909204821660248401526044830152909116906342842e0e90606401600060405180830381600087803b1580156106bc57600080fd5b505af11580156106d0573d6000803e3d6000fd5b50506002546005546040516001600160a01b03909216935080156108fc029250906000818181858888f19350505050158015610710573d6000803e3d6000fd5b50610789565b600054600254600154604051632142170760e11b81523060048201526001600160a01b03928316602482015260448101919091529116906342842e0e90606401600060405180830381600087803b15801561077057600080fd5b505af1158015610784573d6000803e3d6000fd5b505050505b60045460055460408051620100009093046001600160a01b0316835260208301919091527f7d7570b046e5ead3a4f3fbc9fa2445113625a1e79823776146316bafed6b8cc5910160405180910390a1565b6000602082840312156107ec57600080fd5b81356001600160a01b038116811461080357600080fd5b9392505050565b8082018082111561082b57634e487b7160e01b600052601160045260246000fd5b9291505056fea2646970667358221220449cd69366b80f39d37d282b1631998c0b2a25d67043ecf36dbb7e662a7ad8b264736f6c63430008110033",
    "linkReferences": {}
  },
  "methodIdentifiers": {
    "bid()": "1998aeef",
    "bids(address)": "62ea82db",
    "end()": "efbe1c1c",
    "endAt()": "7cc3ae8c",
    "ended()": "12fa6feb",
    "highestBid()": "d57bde79",
    "highestBidder()": "91f90157",
    "nft()": "47ccca02",
    "nftId()": "c6bc5182",
    "seller()": "08551a53",
    "start()": "be9a6555",
    "started()": "1f2698ab",
    "withdraw()": "3ccfd60b"
  },
  "id": 16
}