{
  "abi": [
    {
      "inputs": [
        {
          "internalType": "address",
          "name": "_nft",
          "type": "address"
        },
        {
          "internalType": "uint256",
          "name": "_nftId",
          "type": "uint256"
        },
        {
          "internalType": "uint256",
          "name": "_feeToPlay",
          "type": "uint256"
        }
      ],
      "stateMutability": "nonpayable",
      "type": "constructor"
    },
    {
      "anonymous": false,
      "inputs": [
        {
          "indexed": true,
          "internalType": "address",
          "name": "sender",
          "type": "address"
        },
        {
          "indexed": false,
          "internalType": "string",
          "name": "encryptedAmount",
          "type": "string"
        }
      ],
      "name": "BidEvent",
      "type": "event"
    },
    {
      "anonymous": false,
      "inputs": [
        {
          "indexed": false,
          "internalType": "address",
          "name": "winner",
          "type": "address"
        },
        {
          "indexed": false,
          "internalType": "uint256",
          "name": "amount",
          "type": "uint256"
        }
      ],
      "name": "End",
      "type": "event"
    },
    {
      "anonymous": false,
      "inputs": [
        {
          "indexed": false,
          "internalType": "uint256",
          "name": "endAt",
          "type": "uint256"
        }
      ],
      "name": "Start",
      "type": "event"
    },
    {
      "inputs": [
        {
          "internalType": "string",
          "name": "_encryptedAmount",
          "type": "string"
        },
        {
          "internalType": "string",
          "name": "_symmetricKey",
          "type": "string"
        }
      ],
      "name": "bid",
      "outputs": [],
      "stateMutability": "payable",
      "type": "function"
    },
    {
      "inputs": [
        {
          "internalType": "uint256",
          "name": "",
          "type": "uint256"
        }
      ],
      "name": "bidders",
      "outputs": [
        {
          "internalType": "address",
          "name": "",
          "type": "address"
        }
      ],
      "stateMutability": "view",
      "type": "function"
    },
    {
      "inputs": [
        {
          "internalType": "address",
          "name": "",
          "type": "address"
        }
      ],
      "name": "bids",
      "outputs": [
        {
          "internalType": "string",
          "name": "encryptedAmount",
          "type": "string"
        },
        {
          "internalType": "string",
          "name": "encryptedSymmetricKey",
          "type": "string"
        }
      ],
      "stateMutability": "view",
      "type": "function"
    },
    {
      "inputs": [
        {
          "internalType": "address payable",
          "name": "_highestBidder",
          "type": "address"
        },
        {
          "internalType": "uint256",
          "name": "_highestBid",
          "type": "uint256"
        }
      ],
      "name": "declareWinner",
      "outputs": [],
      "stateMutability": "nonpayable",
      "type": "function"
    },
    {
      "inputs": [],
      "name": "endAt",
      "outputs": [
        {
          "internalType": "uint256",
          "name": "",
          "type": "uint256"
        }
      ],
      "stateMutability": "view",
      "type": "function"
    },
    {
      "inputs": [],
      "name": "ended",
      "outputs": [
        {
          "internalType": "bool",
          "name": "",
          "type": "bool"
        }
      ],
      "stateMutability": "view",
      "type": "function"
    },
    {
      "inputs": [],
      "name": "highestBid",
      "outputs": [
        {
          "internalType": "uint256",
          "name": "",
          "type": "uint256"
        }
      ],
      "stateMutability": "view",
      "type": "function"
    },
    {
      "inputs": [],
      "name": "highestBidder",
      "outputs": [
        {
          "internalType": "address payable",
          "name": "",
          "type": "address"
        }
      ],
      "stateMutability": "view",
      "type": "function"
    },
    {
      "inputs": [],
      "name": "nft",
      "outputs": [
        {
          "internalType": "contract IERC721",
          "name": "",
          "type": "address"
        }
      ],
      "stateMutability": "view",
      "type": "function"
    },
    {
      "inputs": [],
      "name": "nftId",
      "outputs": [
        {
          "internalType": "uint256",
          "name": "",
          "type": "uint256"
        }
      ],
      "stateMutability": "view",
      "type": "function"
    },
    {
      "inputs": [],
      "name": "seller",
      "outputs": [
        {
          "internalType": "address payable",
          "name": "",
          "type": "address"
        }
      ],
      "stateMutability": "view",
      "type": "function"
    },
    {
      "inputs": [
        {
          "internalType": "uint256",
          "name": "_duration",
          "type": "uint256"
        }
      ],
      "name": "start",
      "outputs": [],
      "stateMutability": "nonpayable",
      "type": "function"
    },
    {
      "inputs": [],
      "name": "started",
      "outputs": [
        {
          "internalType": "bool",
          "name": "",
          "type": "bool"
        }
      ],
      "stateMutability": "view",
      "type": "function"
    },
    {
      "inputs": [],
      "name": "withdraw",
      "outputs": [],
      "stateMutability": "payable",
      "type": "function"
    }
  ],
  "bytecode": {
    "object": "0x60a060405234801561001057600080fd5b50604051610ecb380380610ecb83398101604081905261002f91610067565b600080546001600160a01b039094166001600160a01b03199485161790556001919091556002805490921633179091556080526100aa565b60008060006060848603121561007c57600080fd5b83516001600160a01b038116811461009357600080fd5b602085015160409095015190969495509392505050565b608051610e066100c560003960006108fe0152610e066000f3fe6080604052600436106100dd5760003560e01c80637cc3ae8c1161007f578063a4f2613d11610059578063a4f2613d14610244578063c6bc518214610257578063cff29dfd1461026d578063d57bde791461028d57600080fd5b80637cc3ae8c146101e057806391f901571461020457806395805dad1461022457600080fd5b80632ccdfbfa116100bb5780632ccdfbfa146101685780633ccfd60b1461018a57806347ccca021461019257806362ea82db146101b257600080fd5b806308551a53146100e257806312fa6feb1461011f5780631f2698ab1461014e575b600080fd5b3480156100ee57600080fd5b50600254610102906001600160a01b031681565b6040516001600160a01b0390911681526020015b60405180910390f35b34801561012b57600080fd5b5060065461013e90610100900460ff1681565b6040519015158152602001610116565b34801561015a57600080fd5b5060065461013e9060ff1681565b34801561017457600080fd5b50610188610183366004610a69565b6102a3565b005b610188610315565b34801561019e57600080fd5b50600054610102906001600160a01b031681565b3480156101be57600080fd5b506101d26101cd366004610a95565b610612565b604051610116929190610aff565b3480156101ec57600080fd5b506101f660055481565b604051908152602001610116565b34801561021057600080fd5b50600354610102906001600160a01b031681565b34801561023057600080fd5b5061018861023f366004610b2d565b61073e565b610188610252366004610be9565b610883565b34801561026357600080fd5b506101f660015481565b34801561027957600080fd5b50610102610288366004610b2d565b610a27565b34801561029957600080fd5b506101f660045481565b6002546001600160a01b031633146102ef5760405162461bcd60e51b815260206004820152600a6024820152692737ba1039b2b63632b960b11b60448201526064015b60405180910390fd5b600380546001600160a01b0319166001600160a01b039390931692909217909155600455565b60065460ff166103555760405162461bcd60e51b815260206004820152600b60248201526a1b9bdd081cdd185c9d195960aa1b60448201526064016102e6565b6005544210156103935760405162461bcd60e51b81526020600482015260096024820152681b9bdd08195b99195960ba1b60448201526064016102e6565b600654610100900460ff16156103d35760405162461bcd60e51b8152602060048201526005602482015264195b99195960da1b60448201526064016102e6565b6004543410156104255760405162461bcd60e51b815260206004820152601960248201527f706c65617365207061792074686520686967686573744269640000000000000060448201526064016102e6565b6003546001600160a01b0316331461047f5760405162461bcd60e51b815260206004820152601c60248201527f73656e646572206d75737420626520686967686573744269646465720000000060448201526064016102e6565b6006805461ff0019166101001790556003546001600160a01b03161561055357600054600354600154604051632142170760e11b81523060048201526001600160a01b03928316602482015260448101919091529116906342842e0e90606401600060405180830381600087803b1580156104f957600080fd5b505af115801561050d573d6000803e3d6000fd5b50506002546004546040516001600160a01b03909216935080156108fc029250906000818181858888f1935050505015801561054d573d6000803e3d6000fd5b506105c6565b600054600254600154604051632142170760e11b81523060048201526001600160a01b03928316602482015260448101919091529116906342842e0e90606401600060405180830381600087803b1580156105ad57600080fd5b505af11580156105c1573d6000803e3d6000fd5b505050505b600354600454604080516001600160a01b03909316835260208301919091527f7d7570b046e5ead3a4f3fbc9fa2445113625a1e79823776146316bafed6b8cc5910160405180910390a1565b60086020526000908152604090208054819061062d90610c4d565b80601f016020809104026020016040519081016040528092919081815260200182805461065990610c4d565b80156106a65780601f1061067b576101008083540402835291602001916106a6565b820191906000526020600020905b81548152906001019060200180831161068957829003601f168201915b5050505050908060010180546106bb90610c4d565b80601f01602080910402602001604051908101604052809291908181526020018280546106e790610c4d565b80156107345780601f1061070957610100808354040283529160200191610734565b820191906000526020600020905b81548152906001019060200180831161071757829003601f168201915b5050505050905082565b60065460ff161561077b5760405162461bcd60e51b81526020600482015260076024820152661cdd185c9d195960ca1b60448201526064016102e6565b6002546001600160a01b031633146107c25760405162461bcd60e51b815260206004820152600a6024820152693737ba1039b2b63632b960b11b60448201526064016102e6565b6000546001546040516323b872dd60e01b815233600482015230602482015260448101919091526001600160a01b03909116906323b872dd90606401600060405180830381600087803b15801561081857600080fd5b505af115801561082c573d6000803e3d6000fd5b50506006805460ff191660011790555061084890508142610c87565b60058190556040519081527ff06a29c94c6f4edc1085072972d9441f7603e81c8535a308f214285d0653c8509060200160405180910390a150565b60065460ff166108c35760405162461bcd60e51b815260206004820152600b60248201526a1b9bdd081cdd185c9d195960aa1b60448201526064016102e6565b60055442106108fc5760405162461bcd60e51b8152602060048201526005602482015264195b99195960da1b60448201526064016102e6565b7f0000000000000000000000000000000000000000000000000000000000000000341161095d5760405162461bcd60e51b815260206004820152600f60248201526e1d985b1d59480f081a1a59da195cdd608a1b60448201526064016102e6565b604080518082018252838152602080820184905260078054600181019091557fa66cc928b5edb82af9bd49922954155ab7b0942694bea4ce44661d9a8736c6880180546001600160a01b031916339081179091556000908152600890915291909120815182919081906109d09082610cfd565b50602082015160018201906109e59082610cfd565b50506040513391507fd92c50b67de90436ba7111594bb8fe842b6cd482b47e5f619423d3ffe02cb91090610a1a908690610dbd565b60405180910390a2505050565b60078181548110610a3757600080fd5b6000918252602090912001546001600160a01b0316905081565b6001600160a01b0381168114610a6657600080fd5b50565b60008060408385031215610a7c57600080fd5b8235610a8781610a51565b946020939093013593505050565b600060208284031215610aa757600080fd5b8135610ab281610a51565b9392505050565b6000815180845260005b81811015610adf57602081850181015186830182015201610ac3565b506000602082860101526020601f19601f83011685010191505092915050565b604081526000610b126040830185610ab9565b8281036020840152610b248185610ab9565b95945050505050565b600060208284031215610b3f57600080fd5b5035919050565b634e487b7160e01b600052604160045260246000fd5b600082601f830112610b6d57600080fd5b813567ffffffffffffffff80821115610b8857610b88610b46565b604051601f8301601f19908116603f01168101908282118183101715610bb057610bb0610b46565b81604052838152866020858801011115610bc957600080fd5b836020870160208301376000602085830101528094505050505092915050565b60008060408385031215610bfc57600080fd5b823567ffffffffffffffff80821115610c1457600080fd5b610c2086838701610b5c565b93506020850135915080821115610c3657600080fd5b50610c4385828601610b5c565b9150509250929050565b600181811c90821680610c6157607f821691505b602082108103610c8157634e487b7160e01b600052602260045260246000fd5b50919050565b80820180821115610ca857634e487b7160e01b600052601160045260246000fd5b92915050565b601f821115610cf857600081815260208120601f850160051c81016020861015610cd55750805b601f850160051c820191505b81811015610cf457828155600101610ce1565b5050505b505050565b815167ffffffffffffffff811115610d1757610d17610b46565b610d2b81610d258454610c4d565b84610cae565b602080601f831160018114610d605760008415610d485750858301515b600019600386901b1c1916600185901b178555610cf4565b600085815260208120601f198616915b82811015610d8f57888601518255948401946001909101908401610d70565b5085821015610dad5787850151600019600388901b60f8161c191681555b5050505050600190811b01905550565b602081526000610ab26020830184610ab956fea2646970667358221220b17ef17b94fc2700174ea9ee1b1bcfc84bf7a54bd4a841f703ebbbfa82e4602964736f6c63430008110033",
    "linkReferences": {}
  },
  "methodIdentifiers": {
    "bid(string,string)": "a4f2613d",
    "bidders(uint256)": "cff29dfd",
    "bids(address)": "62ea82db",
    "declareWinner(address,uint256)": "2ccdfbfa",
    "endAt()": "7cc3ae8c",
    "ended()": "12fa6feb",
    "highestBid()": "d57bde79",
    "highestBidder()": "91f90157",
    "nft()": "47ccca02",
    "nftId()": "c6bc5182",
    "seller()": "08551a53",
    "start(uint256)": "95805dad",
    "started()": "1f2698ab",
    "withdraw()": "3ccfd60b"
  },
  "id": 32
}