{
  "abi": [
    {
      "inputs": [
        {
          "internalType": "address",
          "name": "_nft",
          "type": "address"
        },
        {
          "internalType": "uint256",
          "name": "_nftId",
          "type": "uint256"
        },
        {
          "internalType": "uint256",
          "name": "_feeToPlay",
          "type": "uint256"
        }
      ],
      "stateMutability": "nonpayable",
      "type": "constructor"
    },
    {
      "anonymous": false,
      "inputs": [
        {
          "indexed": true,
          "internalType": "address",
          "name": "sender",
          "type": "address"
        },
        {
          "indexed": false,
          "internalType": "string",
          "name": "encryptedAmount",
          "type": "string"
        }
      ],
      "name": "BidEvent",
      "type": "event"
    },
    {
      "anonymous": false,
      "inputs": [
        {
          "indexed": false,
          "internalType": "address",
          "name": "winner",
          "type": "address"
        },
        {
          "indexed": false,
          "internalType": "uint256",
          "name": "amount",
          "type": "uint256"
        }
      ],
      "name": "End",
      "type": "event"
    },
    {
      "anonymous": false,
      "inputs": [
        {
          "indexed": false,
          "internalType": "uint256",
          "name": "endAt",
          "type": "uint256"
        }
      ],
      "name": "Start",
      "type": "event"
    },
    {
      "inputs": [],
      "name": "EPNS_COMM_ADDRESS",
      "outputs": [
        {
          "internalType": "address",
          "name": "",
          "type": "address"
        }
      ],
      "stateMutability": "view",
      "type": "function"
    },
    {
      "inputs": [
        {
          "internalType": "string",
          "name": "_encryptedAmount",
          "type": "string"
        },
        {
          "internalType": "string",
          "name": "_symmetricKey",
          "type": "string"
        }
      ],
      "name": "bid",
      "outputs": [],
      "stateMutability": "payable",
      "type": "function"
    },
    {
      "inputs": [
        {
          "internalType": "uint256",
          "name": "",
          "type": "uint256"
        }
      ],
      "name": "bidders",
      "outputs": [
        {
          "internalType": "address",
          "name": "",
          "type": "address"
        }
      ],
      "stateMutability": "view",
      "type": "function"
    },
    {
      "inputs": [
        {
          "internalType": "address",
          "name": "",
          "type": "address"
        }
      ],
      "name": "bids",
      "outputs": [
        {
          "internalType": "string",
          "name": "encryptedAmount",
          "type": "string"
        },
        {
          "internalType": "string",
          "name": "encryptedSymmetricKey",
          "type": "string"
        }
      ],
      "stateMutability": "view",
      "type": "function"
    },
    {
      "inputs": [
        {
          "internalType": "address payable",
          "name": "_highestBidder",
          "type": "address"
        },
        {
          "internalType": "uint256",
          "name": "_highestBid",
          "type": "uint256"
        }
      ],
      "name": "declareWinner",
      "outputs": [],
      "stateMutability": "nonpayable",
      "type": "function"
    },
    {
      "inputs": [],
      "name": "endAt",
      "outputs": [
        {
          "internalType": "uint256",
          "name": "",
          "type": "uint256"
        }
      ],
      "stateMutability": "view",
      "type": "function"
    },
    {
      "inputs": [],
      "name": "ended",
      "outputs": [
        {
          "internalType": "bool",
          "name": "",
          "type": "bool"
        }
      ],
      "stateMutability": "view",
      "type": "function"
    },
    {
      "inputs": [],
      "name": "highestBid",
      "outputs": [
        {
          "internalType": "uint256",
          "name": "",
          "type": "uint256"
        }
      ],
      "stateMutability": "view",
      "type": "function"
    },
    {
      "inputs": [],
      "name": "highestBidder",
      "outputs": [
        {
          "internalType": "address payable",
          "name": "",
          "type": "address"
        }
      ],
      "stateMutability": "view",
      "type": "function"
    },
    {
      "inputs": [],
      "name": "nft",
      "outputs": [
        {
          "internalType": "contract IERC721",
          "name": "",
          "type": "address"
        }
      ],
      "stateMutability": "view",
      "type": "function"
    },
    {
      "inputs": [],
      "name": "nftId",
      "outputs": [
        {
          "internalType": "uint256",
          "name": "",
          "type": "uint256"
        }
      ],
      "stateMutability": "view",
      "type": "function"
    },
    {
      "inputs": [],
      "name": "seller",
      "outputs": [
        {
          "internalType": "address payable",
          "name": "",
          "type": "address"
        }
      ],
      "stateMutability": "view",
      "type": "function"
    },
    {
      "inputs": [
        {
          "internalType": "uint256",
          "name": "_duration",
          "type": "uint256"
        }
      ],
      "name": "start",
      "outputs": [],
      "stateMutability": "nonpayable",
      "type": "function"
    },
    {
      "inputs": [],
      "name": "started",
      "outputs": [
        {
          "internalType": "bool",
          "name": "",
          "type": "bool"
        }
      ],
      "stateMutability": "view",
      "type": "function"
    },
    {
      "inputs": [],
      "name": "withdraw",
      "outputs": [],
      "stateMutability": "payable",
      "type": "function"
    }
  ],
  "bytecode": {
    "object": "0x60a0604052600080546001600160a01b03191673b3971bcef2d791bc4027bbfedfb47319a4aaaaaa17905534801561003657600080fd5b506040516114d13803806114d18339810160408190526100559161008d565b600180546001600160a01b039094166001600160a01b03199485161790556002919091556003805490921633179091556080526100d0565b6000806000606084860312156100a257600080fd5b83516001600160a01b03811681146100b957600080fd5b602085015160409095015190969495509392505050565b6080516113e66100eb60003960006109ec01526113e66000f3fe6080604052600436106100e85760003560e01c806362ea82db1161008a578063a4f2613d11610059578063a4f2613d1461026f578063c6bc518214610282578063cff29dfd14610298578063d57bde79146102b857600080fd5b806362ea82db146101dd5780637cc3ae8c1461020b57806391f901571461022f57806395805dad1461024f57600080fd5b80632ccdfbfa116100c65780632ccdfbfa146101735780633ccfd60b1461019557806347ccca021461019d57806348a3b4a4146101bd57600080fd5b806308551a53146100ed57806312fa6feb1461012a5780631f2698ab14610159575b600080fd5b3480156100f957600080fd5b5060035461010d906001600160a01b031681565b6040516001600160a01b0390911681526020015b60405180910390f35b34801561013657600080fd5b5060075461014990610100900460ff1681565b6040519015158152602001610121565b34801561016557600080fd5b506007546101499060ff1681565b34801561017f57600080fd5b5061019361018e366004610eae565b6102ce565b005b610193610402565b3480156101a957600080fd5b5060015461010d906001600160a01b031681565b3480156101c957600080fd5b5060005461010d906001600160a01b031681565b3480156101e957600080fd5b506101fd6101f8366004610eda565b610700565b604051610121929190610f4e565b34801561021757600080fd5b5061022160065481565b604051908152602001610121565b34801561023b57600080fd5b5060045461010d906001600160a01b031681565b34801561025b57600080fd5b5061019361026a366004610f7c565b61082c565b61019361027d366004611038565b610971565b34801561028e57600080fd5b5061022160025481565b3480156102a457600080fd5b5061010d6102b3366004610f7c565b610b15565b3480156102c457600080fd5b5061022160055481565b6003546001600160a01b0316331461031a5760405162461bcd60e51b815260206004820152600a6024820152692737ba1039b2b63632b960b11b60448201526064015b60405180910390fd5b600480546001600160a01b0319166001600160a01b0384811691909117909155600582905560005460025491169063ba3d69d790734b1b619d4ff6afe77307299b9970d9056b06c37a90309061036f90610b3f565b61037833610bd2565b60045461038d906001600160a01b0316610bd2565b60405160200161039f939291906110b8565b6040516020818303038152906040526040518463ffffffff1660e01b81526004016103cc939291906111bd565b600060405180830381600087803b1580156103e657600080fd5b505af11580156103fa573d6000803e3d6000fd5b505050505050565b60075460ff166104425760405162461bcd60e51b815260206004820152600b60248201526a1b9bdd081cdd185c9d195960aa1b6044820152606401610311565b6006544210156104805760405162461bcd60e51b81526020600482015260096024820152681b9bdd08195b99195960ba1b6044820152606401610311565b600754610100900460ff16156104c05760405162461bcd60e51b8152602060048201526005602482015264195b99195960da1b6044820152606401610311565b6005543410156105125760405162461bcd60e51b815260206004820152601960248201527f706c6561736520706179207468652068696768657374426964000000000000006044820152606401610311565b6004546001600160a01b0316331461056c5760405162461bcd60e51b815260206004820152601c60248201527f73656e646572206d7573742062652068696768657374426964646572000000006044820152606401610311565b6007805461ff0019166101001790556004546001600160a01b0316156106415760015460048054600254604051632142170760e11b815230938101939093526001600160a01b0391821660248401526044830152909116906342842e0e90606401600060405180830381600087803b1580156105e757600080fd5b505af11580156105fb573d6000803e3d6000fd5b50506003546005546040516001600160a01b03909216935080156108fc029250906000818181858888f1935050505015801561063b573d6000803e3d6000fd5b506106b4565b600154600354600254604051632142170760e11b81523060048201526001600160a01b03928316602482015260448101919091529116906342842e0e90606401600060405180830381600087803b15801561069b57600080fd5b505af11580156106af573d6000803e3d6000fd5b505050505b600454600554604080516001600160a01b03909316835260208301919091527f7d7570b046e5ead3a4f3fbc9fa2445113625a1e79823776146316bafed6b8cc5910160405180910390a1565b60096020526000908152604090208054819061071b906111e9565b80601f0160208091040260200160405190810160405280929190818152602001828054610747906111e9565b80156107945780601f1061076957610100808354040283529160200191610794565b820191906000526020600020905b81548152906001019060200180831161077757829003601f168201915b5050505050908060010180546107a9906111e9565b80601f01602080910402602001604051908101604052809291908181526020018280546107d5906111e9565b80156108225780601f106107f757610100808354040283529160200191610822565b820191906000526020600020905b81548152906001019060200180831161080557829003601f168201915b5050505050905082565b60075460ff16156108695760405162461bcd60e51b81526020600482015260076024820152661cdd185c9d195960ca1b6044820152606401610311565b6003546001600160a01b031633146108b05760405162461bcd60e51b815260206004820152600a6024820152693737ba1039b2b63632b960b11b6044820152606401610311565b6001546002546040516323b872dd60e01b815233600482015230602482015260448101919091526001600160a01b03909116906323b872dd90606401600060405180830381600087803b15801561090657600080fd5b505af115801561091a573d6000803e3d6000fd5b50506007805460ff191660011790555061093690508142611239565b60068190556040519081527ff06a29c94c6f4edc1085072972d9441f7603e81c8535a308f214285d0653c8509060200160405180910390a150565b60075460ff166109b15760405162461bcd60e51b815260206004820152600b60248201526a1b9bdd081cdd185c9d195960aa1b6044820152606401610311565b60065442106109ea5760405162461bcd60e51b8152602060048201526005602482015264195b99195960da1b6044820152606401610311565b7f00000000000000000000000000000000000000000000000000000000000000003411610a4b5760405162461bcd60e51b815260206004820152600f60248201526e1d985b1d59480f081a1a59da195cdd608a1b6044820152606401610311565b604080518082018252838152602080820184905260088054600181019091557ff3f7a9fe364faab93b216da50a3214154f22a0a2b415b23a84c8169e8b636ee30180546001600160a01b03191633908117909155600090815260099091529190912081518291908190610abe9082611297565b5060208201516001820190610ad39082611297565b50506040513391507fd92c50b67de90436ba7111594bb8fe842b6cd482b47e5f619423d3ffe02cb91090610b08908690611357565b60405180910390a2505050565b60088181548110610b2557600080fd5b6000918252602090912001546001600160a01b0316905081565b60606000610b4c83610dbd565b600101905060008167ffffffffffffffff811115610b6c57610b6c610f95565b6040519080825280601f01601f191660200182016040528015610b96576020820181803683370190505b5090508181016020015b600019016f181899199a1a9b1b9c1cb0b131b232b360811b600a86061a8153600a8504945084610ba057509392505050565b604080518082018252601081526f181899199a1a9b1b9c1cb0b131b232b360811b60208201528151602a80825260608281019094526001600160a01b0385169291600091602082018180368337019050509050600360fc1b81600081518110610c3d57610c3d61136a565b60200101906001600160f81b031916908160001a905350600f60fb1b81600181518110610c6c57610c6c61136a565b60200101906001600160f81b031916908160001a90535060005b6014811015610db45782600485610c9e84600c611239565b60208110610cae57610cae61136a565b1a60f81b6001600160f81b031916901c60f81c60ff1681518110610cd457610cd461136a565b01602001516001600160f81b03191682610cef836002611380565b610cfa906002611239565b81518110610d0a57610d0a61136a565b60200101906001600160f81b031916908160001a9053508284610d2e83600c611239565b60208110610d3e57610d3e61136a565b825191901a600f16908110610d5557610d5561136a565b01602001516001600160f81b03191682610d70836002611380565b610d7b906003611239565b81518110610d8b57610d8b61136a565b60200101906001600160f81b031916908160001a90535080610dac81611397565b915050610c86565b50949350505050565b60008072184f03e93ff9f4daa797ed6e38ed64bf6a1f0160401b8310610dfc5772184f03e93ff9f4daa797ed6e38ed64bf6a1f0160401b830492506040015b6d04ee2d6d415b85acef81000000008310610e28576d04ee2d6d415b85acef8100000000830492506020015b662386f26fc100008310610e4657662386f26fc10000830492506010015b6305f5e1008310610e5e576305f5e100830492506008015b6127108310610e7257612710830492506004015b60648310610e84576064830492506002015b600a8310610e90576001015b92915050565b6001600160a01b0381168114610eab57600080fd5b50565b60008060408385031215610ec157600080fd5b8235610ecc81610e96565b946020939093013593505050565b600060208284031215610eec57600080fd5b8135610ef781610e96565b9392505050565b60005b83811015610f19578181015183820152602001610f01565b50506000910152565b60008151808452610f3a816020860160208601610efe565b601f01601f19169290920160200192915050565b604081526000610f616040830185610f22565b8281036020840152610f738185610f22565b95945050505050565b600060208284031215610f8e57600080fd5b5035919050565b634e487b7160e01b600052604160045260246000fd5b600082601f830112610fbc57600080fd5b813567ffffffffffffffff80821115610fd757610fd7610f95565b604051601f8301601f19908116603f01168101908282118183101715610fff57610fff610f95565b8160405283815286602085880101111561101857600080fd5b836020870160208301376000602085830101528094505050505092915050565b6000806040838503121561104b57600080fd5b823567ffffffffffffffff8082111561106357600080fd5b61106f86838701610fab565b9350602085013591508082111561108557600080fd5b5061109285828601610fab565b9150509250929050565b600081516110ae818560208601610efe565b9290920192915050565b600360fc1b81526000602b60f81b806001840152603360f81b60028401528060038401527f57696e6e657220416c65727420666f722041756374696f6e20000000000000006004840152855161111581601d860160208a01610efe565b808401905081601d8201526702437b7b930bc90960c51b601e82015285519150611146826026830160208901610efe565b8181019150507f206465636c61726564207468652077696e6e65722120436f6e67726174756c6160268201526503a34b7b739960d51b60468201526111b3611191604c83018661109c565b752e20596f7520776f6e207468652061756374696f6e2160501b815260160190565b9695505050505050565b6001600160a01b03848116825283166020820152606060408201819052600090610f7390830184610f22565b600181811c908216806111fd57607f821691505b60208210810361121d57634e487b7160e01b600052602260045260246000fd5b50919050565b634e487b7160e01b600052601160045260246000fd5b80820180821115610e9057610e90611223565b601f82111561129257600081815260208120601f850160051c810160208610156112735750805b601f850160051c820191505b818110156103fa5782815560010161127f565b505050565b815167ffffffffffffffff8111156112b1576112b1610f95565b6112c5816112bf84546111e9565b8461124c565b602080601f8311600181146112fa57600084156112e25750858301515b600019600386901b1c1916600185901b1785556103fa565b600085815260208120601f198616915b828110156113295788860151825594840194600190910190840161130a565b50858210156113475787850151600019600388901b60f8161c191681555b5050505050600190811b01905550565b602081526000610ef76020830184610f22565b634e487b7160e01b600052603260045260246000fd5b8082028115828204841417610e9057610e90611223565b6000600182016113a9576113a9611223565b506001019056fea26469706673582212208717351170e64c516b683d74bf6d152505a2628af9b71fcb0fc4f3916104180f64736f6c63430008110033",
    "linkReferences": {}
  },
  "methodIdentifiers": {
    "EPNS_COMM_ADDRESS()": "48a3b4a4",
    "bid(string,string)": "a4f2613d",
    "bidders(uint256)": "cff29dfd",
    "bids(address)": "62ea82db",
    "declareWinner(address,uint256)": "2ccdfbfa",
    "endAt()": "7cc3ae8c",
    "ended()": "12fa6feb",
    "highestBid()": "d57bde79",
    "highestBidder()": "91f90157",
    "nft()": "47ccca02",
    "nftId()": "c6bc5182",
    "seller()": "08551a53",
    "start(uint256)": "95805dad",
    "started()": "1f2698ab",
    "withdraw()": "3ccfd60b"
  },
  "id": 28
}