{
  "abi": [
    {
      "inputs": [],
      "stateMutability": "nonpayable",
      "type": "constructor"
    },
    {
      "anonymous": false,
      "inputs": [
        {
          "indexed": true,
          "internalType": "address",
          "name": "owner",
          "type": "address"
        },
        {
          "indexed": true,
          "internalType": "address",
          "name": "approved",
          "type": "address"
        },
        {
          "indexed": true,
          "internalType": "uint256",
          "name": "tokenId",
          "type": "uint256"
        }
      ],
      "name": "Approval",
      "type": "event"
    },
    {
      "anonymous": false,
      "inputs": [
        {
          "indexed": true,
          "internalType": "address",
          "name": "owner",
          "type": "address"
        },
        {
          "indexed": true,
          "internalType": "address",
          "name": "operator",
          "type": "address"
        },
        {
          "indexed": false,
          "internalType": "bool",
          "name": "approved",
          "type": "bool"
        }
      ],
      "name": "ApprovalForAll",
      "type": "event"
    },
    {
      "anonymous": false,
      "inputs": [
        {
          "indexed": true,
          "internalType": "address",
          "name": "from",
          "type": "address"
        },
        {
          "indexed": true,
          "internalType": "address",
          "name": "to",
          "type": "address"
        },
        {
          "indexed": true,
          "internalType": "uint256",
          "name": "tokenId",
          "type": "uint256"
        }
      ],
      "name": "Transfer",
      "type": "event"
    },
    {
      "inputs": [
        {
          "internalType": "address",
          "name": "to",
          "type": "address"
        },
        {
          "internalType": "uint256",
          "name": "tokenId",
          "type": "uint256"
        }
      ],
      "name": "approve",
      "outputs": [],
      "stateMutability": "nonpayable",
      "type": "function"
    },
    {
      "inputs": [
        {
          "internalType": "address",
          "name": "owner",
          "type": "address"
        }
      ],
      "name": "balanceOf",
      "outputs": [
        {
          "internalType": "uint256",
          "name": "",
          "type": "uint256"
        }
      ],
      "stateMutability": "view",
      "type": "function"
    },
    {
      "inputs": [],
      "name": "fetchNfts",
      "outputs": [
        {
          "components": [
            {
              "internalType": "string",
              "name": "name",
              "type": "string"
            },
            {
              "internalType": "string",
              "name": "imageUrl",
              "type": "string"
            },
            {
              "internalType": "string",
              "name": "description",
              "type": "string"
            }
          ],
          "internalType": "struct NFT.nft[]",
          "name": "",
          "type": "tuple[]"
        }
      ],
      "stateMutability": "view",
      "type": "function"
    },
    {
      "inputs": [
        {
          "internalType": "uint256",
          "name": "tokenId",
          "type": "uint256"
        }
      ],
      "name": "getApproved",
      "outputs": [
        {
          "internalType": "address",
          "name": "",
          "type": "address"
        }
      ],
      "stateMutability": "view",
      "type": "function"
    },
    {
      "inputs": [
        {
          "internalType": "address",
          "name": "owner",
          "type": "address"
        },
        {
          "internalType": "address",
          "name": "operator",
          "type": "address"
        }
      ],
      "name": "isApprovedForAll",
      "outputs": [
        {
          "internalType": "bool",
          "name": "",
          "type": "bool"
        }
      ],
      "stateMutability": "view",
      "type": "function"
    },
    {
      "inputs": [
        {
          "internalType": "string",
          "name": "name",
          "type": "string"
        },
        {
          "internalType": "string",
          "name": "imageUrl",
          "type": "string"
        },
        {
          "internalType": "string",
          "name": "description",
          "type": "string"
        }
      ],
      "name": "mintNft",
      "outputs": [],
      "stateMutability": "nonpayable",
      "type": "function"
    },
    {
      "inputs": [],
      "name": "name",
      "outputs": [
        {
          "internalType": "string",
          "name": "",
          "type": "string"
        }
      ],
      "stateMutability": "view",
      "type": "function"
    },
    {
      "inputs": [
        {
          "internalType": "uint256",
          "name": "tokenId",
          "type": "uint256"
        }
      ],
      "name": "ownerOf",
      "outputs": [
        {
          "internalType": "address",
          "name": "",
          "type": "address"
        }
      ],
      "stateMutability": "view",
      "type": "function"
    },
    {
      "inputs": [
        {
          "internalType": "address",
          "name": "from",
          "type": "address"
        },
        {
          "internalType": "address",
          "name": "to",
          "type": "address"
        },
        {
          "internalType": "uint256",
          "name": "tokenId",
          "type": "uint256"
        }
      ],
      "name": "safeTransferFrom",
      "outputs": [],
      "stateMutability": "nonpayable",
      "type": "function"
    },
    {
      "inputs": [
        {
          "internalType": "address",
          "name": "from",
          "type": "address"
        },
        {
          "internalType": "address",
          "name": "to",
          "type": "address"
        },
        {
          "internalType": "uint256",
          "name": "tokenId",
          "type": "uint256"
        },
        {
          "internalType": "bytes",
          "name": "data",
          "type": "bytes"
        }
      ],
      "name": "safeTransferFrom",
      "outputs": [],
      "stateMutability": "nonpayable",
      "type": "function"
    },
    {
      "inputs": [
        {
          "internalType": "address",
          "name": "operator",
          "type": "address"
        },
        {
          "internalType": "bool",
          "name": "approved",
          "type": "bool"
        }
      ],
      "name": "setApprovalForAll",
      "outputs": [],
      "stateMutability": "nonpayable",
      "type": "function"
    },
    {
      "inputs": [
        {
          "internalType": "bytes4",
          "name": "interfaceId",
          "type": "bytes4"
        }
      ],
      "name": "supportsInterface",
      "outputs": [
        {
          "internalType": "bool",
          "name": "",
          "type": "bool"
        }
      ],
      "stateMutability": "view",
      "type": "function"
    },
    {
      "inputs": [],
      "name": "symbol",
      "outputs": [
        {
          "internalType": "string",
          "name": "",
          "type": "string"
        }
      ],
      "stateMutability": "view",
      "type": "function"
    },
    {
      "inputs": [
        {
          "internalType": "uint256",
          "name": "tokenId",
          "type": "uint256"
        }
      ],
      "name": "tokenURI",
      "outputs": [
        {
          "internalType": "string",
          "name": "",
          "type": "string"
        }
      ],
      "stateMutability": "view",
      "type": "function"
    },
    {
      "inputs": [
        {
          "internalType": "address",
          "name": "from",
          "type": "address"
        },
        {
          "internalType": "address",
          "name": "to",
          "type": "address"
        },
        {
          "internalType": "uint256",
          "name": "tokenId",
          "type": "uint256"
        }
      ],
      "name": "transferFrom",
      "outputs": [],
      "stateMutability": "nonpayable",
      "type": "function"
    }
  ],
  "bytecode": {
    "object": "0x60806040523480156200001157600080fd5b506040518060400160405280600681526020016522aa241029a360d11b8152506040518060400160405280600581526020016422aa2429a360d91b815250816000908162000060919062000122565b5060016200006f828262000122565b5050600160075550620001ee565b634e487b7160e01b600052604160045260246000fd5b600181811c90821680620000a857607f821691505b602082108103620000c957634e487b7160e01b600052602260045260246000fd5b50919050565b601f8211156200011d57600081815260208120601f850160051c81016020861015620000f85750805b601f850160051c820191505b81811015620001195782815560010162000104565b5050505b505050565b81516001600160401b038111156200013e576200013e6200007d565b62000156816200014f845462000093565b84620000cf565b602080601f8311600181146200018e5760008415620001755750858301515b600019600386901b1c1916600185901b17855562000119565b600085815260208120601f198616915b82811015620001bf578886015182559484019460019091019084016200019e565b5085821015620001de5787850151600019600388901b60f8161c191681555b5050505050600190811b01905550565b611ef380620001fe6000396000f3fe608060405234801561001057600080fd5b50600436106100f55760003560e01c80636352211e11610097578063b88d4fde11610066578063b88d4fde14610201578063c87b56dd14610214578063d846f67c14610227578063e985e9c51461023a57600080fd5b80636352211e146101b257806370a08231146101c557806395d89b41146101e6578063a22cb465146101ee57600080fd5b8063095ea7b3116100d3578063095ea7b31461016257806320de9a631461017757806323b872dd1461018c57806342842e0e1461019f57600080fd5b806301ffc9a7146100fa57806306fdde0314610122578063081812fc14610137575b600080fd5b61010d610108366004611630565b61024d565b60405190151581526020015b60405180910390f35b61012a61029f565b604051610119919061169d565b61014a6101453660046116b0565b610331565b6040516001600160a01b039091168152602001610119565b6101756101703660046116e5565b610358565b005b61017f610472565b604051610119919061170f565b61017561019a3660046117b0565b61071a565b6101756101ad3660046117b0565b61074b565b61014a6101c03660046116b0565b610766565b6101d86101d33660046117ec565b6107c6565b604051908152602001610119565b61012a61084c565b6101756101fc366004611807565b61085b565b61017561020f3660046118cf565b61086a565b61012a6102223660046116b0565b6108a2565b61017561023536600461196b565b6109b2565b61010d6102483660046119f3565b610a63565b60006001600160e01b031982166380ac58cd60e01b148061027e57506001600160e01b03198216635b5e139f60e01b145b8061029957506301ffc9a760e01b6001600160e01b03198316145b92915050565b6060600080546102ae90611a26565b80601f01602080910402602001604051908101604052809291908181526020018280546102da90611a26565b80156103275780601f106102fc57610100808354040283529160200191610327565b820191906000526020600020905b81548152906001019060200180831161030a57829003601f168201915b5050505050905090565b600061033c82610a91565b506000908152600460205260409020546001600160a01b031690565b600061036382610766565b9050806001600160a01b0316836001600160a01b0316036103d55760405162461bcd60e51b815260206004820152602160248201527f4552433732313a20617070726f76616c20746f2063757272656e74206f776e656044820152603960f91b60648201526084015b60405180910390fd5b336001600160a01b03821614806103f157506103f18133610a63565b6104635760405162461bcd60e51b815260206004820152603d60248201527f4552433732313a20617070726f76652063616c6c6572206973206e6f7420746f60448201527f6b656e206f776e6572206f7220617070726f76656420666f7220616c6c00000060648201526084016103cc565b61046d8383610af3565b505050565b6060600061047f60085490565b67ffffffffffffffff81111561049757610497611843565b6040519080825280602002602001820160405280156104ec57816020015b6104d960405180606001604052806060815260200160608152602001606081525090565b8152602001906001900390816104b55790505b50905060015b600854610500906001611a70565b8110156107145760008181526009602052604080822081516060810190925280548290829061052e90611a26565b80601f016020809104026020016040519081016040528092919081815260200182805461055a90611a26565b80156105a75780601f1061057c576101008083540402835291602001916105a7565b820191906000526020600020905b81548152906001019060200180831161058a57829003601f168201915b505050505081526020016001820180546105c090611a26565b80601f01602080910402602001604051908101604052809291908181526020018280546105ec90611a26565b80156106395780601f1061060e57610100808354040283529160200191610639565b820191906000526020600020905b81548152906001019060200180831161061c57829003601f168201915b5050505050815260200160028201805461065290611a26565b80601f016020809104026020016040519081016040528092919081815260200182805461067e90611a26565b80156106cb5780601f106106a0576101008083540402835291602001916106cb565b820191906000526020600020905b8154815290600101906020018083116106ae57829003601f168201915b505050505081525050905080836001846106e59190611a83565b815181106106f5576106f5611a96565b602002602001018190525050808061070c90611aac565b9150506104f2565b50919050565b6107243382610b61565b6107405760405162461bcd60e51b81526004016103cc90611ac5565b61046d838383610bbf565b61046d8383836040518060200160405280600081525061086a565b6000818152600260205260408120546001600160a01b0316806102995760405162461bcd60e51b8152602060048201526018602482015277115490cdcc8c4e881a5b9d985b1a59081d1bdad95b88125160421b60448201526064016103cc565b60006001600160a01b0382166108305760405162461bcd60e51b815260206004820152602960248201527f4552433732313a2061646472657373207a65726f206973206e6f7420612076616044820152683634b21037bbb732b960b91b60648201526084016103cc565b506001600160a01b031660009081526003602052604090205490565b6060600180546102ae90611a26565b610866338383610d30565b5050565b6108743383610b61565b6108905760405162461bcd60e51b81526004016103cc90611ac5565b61089c84848484610dfe565b50505050565b60606108ad82610a91565b600082815260066020526040812080546108c690611a26565b80601f01602080910402602001604051908101604052809291908181526020018280546108f290611a26565b801561093f5780601f106109145761010080835404028352916020019161093f565b820191906000526020600020905b81548152906001019060200180831161092257829003601f168201915b50505050509050600061095d60408051602081019091526000815290565b9050805160000361096f575092915050565b8151156109a1578082604051602001610989929190611b12565b60405160208183030381529060405292505050919050565b6109aa84610e31565b949350505050565b6109ba610ea5565b6109c8600880546001019055565b60006109d360085490565b90506109df3382610efe565b6109f3816109ee868686610f18565b610f74565b604080516060810182528581526020808201869052818301859052600084815260099091529190912081518190610a2a9082611b8f565b5060208201516001820190610a3f9082611b8f565b5060408201516002820190610a549082611b8f565b509050505061046d6001600755565b6001600160a01b03918216600090815260056020908152604080832093909416825291909152205460ff1690565b6000818152600260205260409020546001600160a01b0316610af05760405162461bcd60e51b8152602060048201526018602482015277115490cdcc8c4e881a5b9d985b1a59081d1bdad95b88125160421b60448201526064016103cc565b50565b600081815260046020526040902080546001600160a01b0319166001600160a01b0384169081179091558190610b2882610766565b6001600160a01b03167f8c5be1e5ebec7d5bd14f71427d1e84f3dd0314c0f7b2291e5b200ac8c7c3b92560405160405180910390a45050565b600080610b6d83610766565b9050806001600160a01b0316846001600160a01b03161480610b945750610b948185610a63565b806109aa5750836001600160a01b0316610bad84610331565b6001600160a01b031614949350505050565b826001600160a01b0316610bd282610766565b6001600160a01b031614610bf85760405162461bcd60e51b81526004016103cc90611c4f565b6001600160a01b038216610c5a5760405162461bcd60e51b8152602060048201526024808201527f4552433732313a207472616e7366657220746f20746865207a65726f206164646044820152637265737360e01b60648201526084016103cc565b610c678383836001611007565b826001600160a01b0316610c7a82610766565b6001600160a01b031614610ca05760405162461bcd60e51b81526004016103cc90611c4f565b600081815260046020908152604080832080546001600160a01b03199081169091556001600160a01b0387811680865260038552838620805460001901905590871680865283862080546001019055868652600290945282852080549092168417909155905184937fddf252ad1be2c89b69c2b068fc378daa952ba7f163c4a11628f55a4df523b3ef91a4505050565b816001600160a01b0316836001600160a01b031603610d915760405162461bcd60e51b815260206004820152601960248201527f4552433732313a20617070726f766520746f2063616c6c65720000000000000060448201526064016103cc565b6001600160a01b03838116600081815260056020908152604080832094871680845294825291829020805460ff191686151590811790915591519182527f17307eab39ab6107e8899845ad3d59bd9653f200f220920489ca2b5937696c31910160405180910390a3505050565b610e09848484610bbf565b610e158484848461108f565b61089c5760405162461bcd60e51b81526004016103cc90611c94565b6060610e3c82610a91565b6000610e5360408051602081019091526000815290565b90506000815111610e735760405180602001604052806000815250610e9e565b80610e7d84611190565b604051602001610e8e929190611b12565b6040516020818303038152906040525b9392505050565b600260075403610ef75760405162461bcd60e51b815260206004820152601f60248201527f5265656e7472616e637947756172643a207265656e7472616e742063616c6c0060448201526064016103cc565b6002600755565b610866828260405180602001604052806000815250611223565b60606000848484604051602001610f3193929190611ce6565b6040516020818303038152906040529050610f4b81611256565b604051602001610f5b9190611da5565b6040516020818303038152906040529150509392505050565b6000828152600260205260409020546001600160a01b0316610fef5760405162461bcd60e51b815260206004820152602e60248201527f45524337323155524953746f726167653a2055524920736574206f66206e6f6e60448201526d32bc34b9ba32b73a103a37b5b2b760911b60648201526084016103cc565b600082815260066020526040902061046d8282611b8f565b600181111561089c576001600160a01b0384161561104d576001600160a01b03841660009081526003602052604081208054839290611047908490611a83565b90915550505b6001600160a01b0383161561089c576001600160a01b03831660009081526003602052604081208054839290611084908490611a70565b909155505050505050565b60006001600160a01b0384163b1561118557604051630a85bd0160e11b81526001600160a01b0385169063150b7a02906110d3903390899088908890600401611dea565b6020604051808303816000875af192505050801561110e575060408051601f3d908101601f1916820190925261110b91810190611e27565b60015b61116b573d80801561113c576040519150601f19603f3d011682016040523d82523d6000602084013e611141565b606091505b5080516000036111635760405162461bcd60e51b81526004016103cc90611c94565b805181602001fd5b6001600160e01b031916630a85bd0160e11b1490506109aa565b506001949350505050565b6060600061119d836113a9565b600101905060008167ffffffffffffffff8111156111bd576111bd611843565b6040519080825280601f01601f1916602001820160405280156111e7576020820181803683370190505b5090508181016020015b600019016f181899199a1a9b1b9c1cb0b131b232b360811b600a86061a8153600a85049450846111f157509392505050565b61122d8383611481565b61123a600084848461108f565b61046d5760405162461bcd60e51b81526004016103cc90611c94565b6060815160000361127557505060408051602081019091526000815290565b6000604051806060016040528060408152602001611e7e60409139905060006003845160026112a49190611a70565b6112ae9190611e44565b6112b9906004611e66565b67ffffffffffffffff8111156112d1576112d1611843565b6040519080825280601f01601f1916602001820160405280156112fb576020820181803683370190505b509050600182016020820185865187015b80821015611367576003820191508151603f8160121c168501518453600184019350603f81600c1c168501518453600184019350603f8160061c168501518453600184019350603f811685015184535060018301925061130c565b505060038651066001811461138357600281146113965761139e565b603d6001830353603d600283035361139e565b603d60018303535b509195945050505050565b60008072184f03e93ff9f4daa797ed6e38ed64bf6a1f0160401b83106113e85772184f03e93ff9f4daa797ed6e38ed64bf6a1f0160401b830492506040015b6d04ee2d6d415b85acef81000000008310611414576d04ee2d6d415b85acef8100000000830492506020015b662386f26fc10000831061143257662386f26fc10000830492506010015b6305f5e100831061144a576305f5e100830492506008015b612710831061145e57612710830492506004015b60648310611470576064830492506002015b600a83106102995760010192915050565b6001600160a01b0382166114d75760405162461bcd60e51b815260206004820181905260248201527f4552433732313a206d696e7420746f20746865207a65726f206164647265737360448201526064016103cc565b6000818152600260205260409020546001600160a01b03161561153c5760405162461bcd60e51b815260206004820152601c60248201527f4552433732313a20746f6b656e20616c7265616479206d696e7465640000000060448201526064016103cc565b61154a600083836001611007565b6000818152600260205260409020546001600160a01b0316156115af5760405162461bcd60e51b815260206004820152601c60248201527f4552433732313a20746f6b656e20616c7265616479206d696e7465640000000060448201526064016103cc565b6001600160a01b038216600081815260036020908152604080832080546001019055848352600290915280822080546001600160a01b0319168417905551839291907fddf252ad1be2c89b69c2b068fc378daa952ba7f163c4a11628f55a4df523b3ef908290a45050565b6001600160e01b031981168114610af057600080fd5b60006020828403121561164257600080fd5b8135610e9e8161161a565b60005b83811015611668578181015183820152602001611650565b50506000910152565b6000815180845261168981602086016020860161164d565b601f01601f19169290920160200192915050565b602081526000610e9e6020830184611671565b6000602082840312156116c257600080fd5b5035919050565b80356001600160a01b03811681146116e057600080fd5b919050565b600080604083850312156116f857600080fd5b611701836116c9565b946020939093013593505050565b60006020808301818452808551808352604092508286019150828160051b87010184880160005b838110156117a257603f1989840301855281516060815181865261175c82870182611671565b915050888201518582038a8701526117748282611671565b9150508782015191508481038886015261178e8183611671565b968901969450505090860190600101611736565b509098975050505050505050565b6000806000606084860312156117c557600080fd5b6117ce846116c9565b92506117dc602085016116c9565b9150604084013590509250925092565b6000602082840312156117fe57600080fd5b610e9e826116c9565b6000806040838503121561181a57600080fd5b611823836116c9565b91506020830135801515811461183857600080fd5b809150509250929050565b634e487b7160e01b600052604160045260246000fd5b600067ffffffffffffffff8084111561187457611874611843565b604051601f8501601f19908116603f0116810190828211818310171561189c5761189c611843565b816040528093508581528686860111156118b557600080fd5b858560208301376000602087830101525050509392505050565b600080600080608085870312156118e557600080fd5b6118ee856116c9565b93506118fc602086016116c9565b925060408501359150606085013567ffffffffffffffff81111561191f57600080fd5b8501601f8101871361193057600080fd5b61193f87823560208401611859565b91505092959194509250565b600082601f83011261195c57600080fd5b610e9e83833560208501611859565b60008060006060848603121561198057600080fd5b833567ffffffffffffffff8082111561199857600080fd5b6119a48783880161194b565b945060208601359150808211156119ba57600080fd5b6119c68783880161194b565b935060408601359150808211156119dc57600080fd5b506119e98682870161194b565b9150509250925092565b60008060408385031215611a0657600080fd5b611a0f836116c9565b9150611a1d602084016116c9565b90509250929050565b600181811c90821680611a3a57607f821691505b60208210810361071457634e487b7160e01b600052602260045260246000fd5b634e487b7160e01b600052601160045260246000fd5b8082018082111561029957610299611a5a565b8181038181111561029957610299611a5a565b634e487b7160e01b600052603260045260246000fd5b600060018201611abe57611abe611a5a565b5060010190565b6020808252602d908201527f4552433732313a2063616c6c6572206973206e6f7420746f6b656e206f776e6560408201526c1c881bdc88185c1c1c9bdd9959609a1b606082015260800190565b60008351611b2481846020880161164d565b835190830190611b3881836020880161164d565b01949350505050565b601f82111561046d57600081815260208120601f850160051c81016020861015611b685750805b601f850160051c820191505b81811015611b8757828155600101611b74565b505050505050565b815167ffffffffffffffff811115611ba957611ba9611843565b611bbd81611bb78454611a26565b84611b41565b602080601f831160018114611bf25760008415611bda5750858301515b600019600386901b1c1916600185901b178555611b87565b600085815260208120601f198616915b82811015611c2157888601518255948401946001909101908401611c02565b5085821015611c3f5787850151600019600388901b60f8161c191681555b5050505050600190811b01905550565b60208082526025908201527f4552433732313a207472616e736665722066726f6d20696e636f72726563742060408201526437bbb732b960d91b606082015260800190565b60208082526032908201527f4552433732313a207472616e7366657220746f206e6f6e20455243373231526560408201527131b2b4bb32b91034b6b83632b6b2b73a32b960711b606082015260800190565b607b60f81b815268113730b6b2911d101160b91b60018201528351600090611d1581600a85016020890161164d565b61088b60f21b600a918401918201819052691134b6b0b3b2911d101160b11b600c8301528551611d4c816016850160208a0161164d565b60169201918201526f113232b9b1b934b83a34b7b7111d101160811b60188201528351611d8081602884016020880161164d565b601160f91b60289290910191820152607d60f81b6029820152602a0195945050505050565b7f646174613a6170706c69636174696f6e2f6a736f6e3b6261736536342c000000815260008251611ddd81601d85016020870161164d565b91909101601d0192915050565b6001600160a01b0385811682528416602082015260408101839052608060608201819052600090611e1d90830184611671565b9695505050505050565b600060208284031215611e3957600080fd5b8151610e9e8161161a565b600082611e6157634e487b7160e01b600052601260045260246000fd5b500490565b808202811582820484141761029957610299611a5a56fe4142434445464748494a4b4c4d4e4f505152535455565758595a6162636465666768696a6b6c6d6e6f707172737475767778797a303132333435363738392b2fa264697066735822122012d3192c9c441bc1dfa2dc7278ebf940dcd447dea1af5e114491396be8570bb664736f6c63430008110033",
    "linkReferences": {}
  },
  "methodIdentifiers": {
    "approve(address,uint256)": "095ea7b3",
    "balanceOf(address)": "70a08231",
    "fetchNfts()": "20de9a63",
    "getApproved(uint256)": "081812fc",
    "isApprovedForAll(address,address)": "e985e9c5",
    "mintNft(string,string,string)": "d846f67c",
    "name()": "06fdde03",
    "ownerOf(uint256)": "6352211e",
    "safeTransferFrom(address,address,uint256)": "42842e0e",
    "safeTransferFrom(address,address,uint256,bytes)": "b88d4fde",
    "setApprovalForAll(address,bool)": "a22cb465",
    "supportsInterface(bytes4)": "01ffc9a7",
    "symbol()": "95d89b41",
    "tokenURI(uint256)": "c87b56dd",
    "transferFrom(address,address,uint256)": "23b872dd"
  },
  "id": 34
}