{
  "abi": [
    {
      "inputs": [],
      "stateMutability": "nonpayable",
      "type": "constructor"
    },
    {
      "anonymous": false,
      "inputs": [
        {
          "indexed": true,
          "internalType": "address",
          "name": "owner",
          "type": "address"
        },
        {
          "indexed": true,
          "internalType": "address",
          "name": "approved",
          "type": "address"
        },
        {
          "indexed": true,
          "internalType": "uint256",
          "name": "tokenId",
          "type": "uint256"
        }
      ],
      "name": "Approval",
      "type": "event"
    },
    {
      "anonymous": false,
      "inputs": [
        {
          "indexed": true,
          "internalType": "address",
          "name": "owner",
          "type": "address"
        },
        {
          "indexed": true,
          "internalType": "address",
          "name": "operator",
          "type": "address"
        },
        {
          "indexed": false,
          "internalType": "bool",
          "name": "approved",
          "type": "bool"
        }
      ],
      "name": "ApprovalForAll",
      "type": "event"
    },
    {
      "anonymous": false,
      "inputs": [
        {
          "indexed": true,
          "internalType": "address",
          "name": "from",
          "type": "address"
        },
        {
          "indexed": true,
          "internalType": "address",
          "name": "to",
          "type": "address"
        },
        {
          "indexed": true,
          "internalType": "uint256",
          "name": "tokenId",
          "type": "uint256"
        }
      ],
      "name": "Transfer",
      "type": "event"
    },
    {
      "inputs": [
        {
          "internalType": "address",
          "name": "to",
          "type": "address"
        },
        {
          "internalType": "uint256",
          "name": "tokenId",
          "type": "uint256"
        }
      ],
      "name": "approve",
      "outputs": [],
      "stateMutability": "nonpayable",
      "type": "function"
    },
    {
      "inputs": [
        {
          "internalType": "address",
          "name": "owner",
          "type": "address"
        }
      ],
      "name": "balanceOf",
      "outputs": [
        {
          "internalType": "uint256",
          "name": "",
          "type": "uint256"
        }
      ],
      "stateMutability": "view",
      "type": "function"
    },
    {
      "inputs": [],
      "name": "fetchNfts",
      "outputs": [
        {
          "components": [
            {
              "internalType": "string",
              "name": "name",
              "type": "string"
            },
            {
              "internalType": "string",
              "name": "imageUrl",
              "type": "string"
            },
            {
              "internalType": "string",
              "name": "description",
              "type": "string"
            },
            {
              "internalType": "uint256",
              "name": "tokenID",
              "type": "uint256"
            }
          ],
          "internalType": "struct NFT.nft[]",
          "name": "",
          "type": "tuple[]"
        }
      ],
      "stateMutability": "view",
      "type": "function"
    },
    {
      "inputs": [
        {
          "internalType": "uint256",
          "name": "tokenId",
          "type": "uint256"
        }
      ],
      "name": "getApproved",
      "outputs": [
        {
          "internalType": "address",
          "name": "",
          "type": "address"
        }
      ],
      "stateMutability": "view",
      "type": "function"
    },
    {
      "inputs": [
        {
          "internalType": "address",
          "name": "owner",
          "type": "address"
        },
        {
          "internalType": "address",
          "name": "operator",
          "type": "address"
        }
      ],
      "name": "isApprovedForAll",
      "outputs": [
        {
          "internalType": "bool",
          "name": "",
          "type": "bool"
        }
      ],
      "stateMutability": "view",
      "type": "function"
    },
    {
      "inputs": [
        {
          "internalType": "string",
          "name": "name",
          "type": "string"
        },
        {
          "internalType": "string",
          "name": "imageUrl",
          "type": "string"
        },
        {
          "internalType": "string",
          "name": "description",
          "type": "string"
        }
      ],
      "name": "mintNft",
      "outputs": [],
      "stateMutability": "nonpayable",
      "type": "function"
    },
    {
      "inputs": [],
      "name": "name",
      "outputs": [
        {
          "internalType": "string",
          "name": "",
          "type": "string"
        }
      ],
      "stateMutability": "view",
      "type": "function"
    },
    {
      "inputs": [
        {
          "internalType": "uint256",
          "name": "tokenId",
          "type": "uint256"
        }
      ],
      "name": "ownerOf",
      "outputs": [
        {
          "internalType": "address",
          "name": "",
          "type": "address"
        }
      ],
      "stateMutability": "view",
      "type": "function"
    },
    {
      "inputs": [
        {
          "internalType": "address",
          "name": "from",
          "type": "address"
        },
        {
          "internalType": "address",
          "name": "to",
          "type": "address"
        },
        {
          "internalType": "uint256",
          "name": "tokenId",
          "type": "uint256"
        }
      ],
      "name": "safeTransferFrom",
      "outputs": [],
      "stateMutability": "nonpayable",
      "type": "function"
    },
    {
      "inputs": [
        {
          "internalType": "address",
          "name": "from",
          "type": "address"
        },
        {
          "internalType": "address",
          "name": "to",
          "type": "address"
        },
        {
          "internalType": "uint256",
          "name": "tokenId",
          "type": "uint256"
        },
        {
          "internalType": "bytes",
          "name": "data",
          "type": "bytes"
        }
      ],
      "name": "safeTransferFrom",
      "outputs": [],
      "stateMutability": "nonpayable",
      "type": "function"
    },
    {
      "inputs": [
        {
          "internalType": "address",
          "name": "operator",
          "type": "address"
        },
        {
          "internalType": "bool",
          "name": "approved",
          "type": "bool"
        }
      ],
      "name": "setApprovalForAll",
      "outputs": [],
      "stateMutability": "nonpayable",
      "type": "function"
    },
    {
      "inputs": [
        {
          "internalType": "bytes4",
          "name": "interfaceId",
          "type": "bytes4"
        }
      ],
      "name": "supportsInterface",
      "outputs": [
        {
          "internalType": "bool",
          "name": "",
          "type": "bool"
        }
      ],
      "stateMutability": "view",
      "type": "function"
    },
    {
      "inputs": [],
      "name": "symbol",
      "outputs": [
        {
          "internalType": "string",
          "name": "",
          "type": "string"
        }
      ],
      "stateMutability": "view",
      "type": "function"
    },
    {
      "inputs": [
        {
          "internalType": "uint256",
          "name": "tokenId",
          "type": "uint256"
        }
      ],
      "name": "tokenURI",
      "outputs": [
        {
          "internalType": "string",
          "name": "",
          "type": "string"
        }
      ],
      "stateMutability": "view",
      "type": "function"
    },
    {
      "inputs": [
        {
          "internalType": "address",
          "name": "from",
          "type": "address"
        },
        {
          "internalType": "address",
          "name": "to",
          "type": "address"
        },
        {
          "internalType": "uint256",
          "name": "tokenId",
          "type": "uint256"
        }
      ],
      "name": "transferFrom",
      "outputs": [],
      "stateMutability": "nonpayable",
      "type": "function"
    }
  ],
  "bytecode": {
    "object": "0x60806040523480156200001157600080fd5b506040518060400160405280600681526020016522aa241029a360d11b8152506040518060400160405280600581526020016422aa2429a360d91b815250816000908162000060919062000122565b5060016200006f828262000122565b5050600160075550620001ee565b634e487b7160e01b600052604160045260246000fd5b600181811c90821680620000a857607f821691505b602082108103620000c957634e487b7160e01b600052602260045260246000fd5b50919050565b601f8211156200011d57600081815260208120601f850160051c81016020861015620000f85750805b601f850160051c820191505b81811015620001195782815560010162000104565b5050505b505050565b81516001600160401b038111156200013e576200013e6200007d565b62000156816200014f845462000093565b84620000cf565b602080601f8311600181146200018e5760008415620001755750858301515b600019600386901b1c1916600185901b17855562000119565b600085815260208120601f198616915b82811015620001bf578886015182559484019460019091019084016200019e565b5085821015620001de5787850151600019600388901b60f8161c191681555b5050505050600190811b01905550565b611f5380620001fe6000396000f3fe608060405234801561001057600080fd5b50600436106100f55760003560e01c80636352211e11610097578063b88d4fde11610066578063b88d4fde14610201578063c87b56dd14610214578063d846f67c14610227578063e985e9c51461023a57600080fd5b80636352211e146101b257806370a08231146101c557806395d89b41146101e6578063a22cb465146101ee57600080fd5b8063095ea7b3116100d3578063095ea7b31461016257806320de9a631461017757806323b872dd1461018c57806342842e0e1461019f57600080fd5b806301ffc9a7146100fa57806306fdde0314610122578063081812fc14610137575b600080fd5b61010d610108366004611653565b61024d565b60405190151581526020015b60405180910390f35b61012a61029f565b60405161011991906116c0565b61014a6101453660046116d3565b610331565b6040516001600160a01b039091168152602001610119565b610175610170366004611708565b610358565b005b61017f610472565b6040516101199190611732565b61017561019a3660046117de565b61072b565b6101756101ad3660046117de565b61075c565b61014a6101c03660046116d3565b610777565b6101d86101d336600461181a565b6107d7565b604051908152602001610119565b61012a61085d565b6101756101fc366004611835565b61086c565b61017561020f3660046118fd565b61087b565b61012a6102223660046116d3565b6108b3565b610175610235366004611999565b6109c3565b61010d610248366004611a21565b610a86565b60006001600160e01b031982166380ac58cd60e01b148061027e57506001600160e01b03198216635b5e139f60e01b145b8061029957506301ffc9a760e01b6001600160e01b03198316145b92915050565b6060600080546102ae90611a54565b80601f01602080910402602001604051908101604052809291908181526020018280546102da90611a54565b80156103275780601f106102fc57610100808354040283529160200191610327565b820191906000526020600020905b81548152906001019060200180831161030a57829003601f168201915b5050505050905090565b600061033c82610ab4565b506000908152600460205260409020546001600160a01b031690565b600061036382610777565b9050806001600160a01b0316836001600160a01b0316036103d55760405162461bcd60e51b815260206004820152602160248201527f4552433732313a20617070726f76616c20746f2063757272656e74206f776e656044820152603960f91b60648201526084015b60405180910390fd5b336001600160a01b03821614806103f157506103f18133610a86565b6104635760405162461bcd60e51b815260206004820152603d60248201527f4552433732313a20617070726f76652063616c6c6572206973206e6f7420746f60448201527f6b656e206f776e6572206f7220617070726f76656420666f7220616c6c00000060648201526084016103cc565b61046d8383610b16565b505050565b6060600061047f60085490565b67ffffffffffffffff81111561049757610497611871565b6040519080825280602002602001820160405280156104f357816020015b6104e06040518060800160405280606081526020016060815260200160608152602001600081525090565b8152602001906001900390816104b55790505b50905060015b600854610507906001611a9e565b8110156107255760008181526009602052604080822081516080810190925280548290829061053590611a54565b80601f016020809104026020016040519081016040528092919081815260200182805461056190611a54565b80156105ae5780601f10610583576101008083540402835291602001916105ae565b820191906000526020600020905b81548152906001019060200180831161059157829003601f168201915b505050505081526020016001820180546105c790611a54565b80601f01602080910402602001604051908101604052809291908181526020018280546105f390611a54565b80156106405780601f1061061557610100808354040283529160200191610640565b820191906000526020600020905b81548152906001019060200180831161062357829003601f168201915b5050505050815260200160028201805461065990611a54565b80601f016020809104026020016040519081016040528092919081815260200182805461068590611a54565b80156106d25780601f106106a7576101008083540402835291602001916106d2565b820191906000526020600020905b8154815290600101906020018083116106b557829003601f168201915b50505050508152602001600382015481525050905080836001846106f69190611ab1565b8151811061070657610706611ac4565b602002602001018190525050808061071d90611ada565b9150506104f9565b50919050565b6107353382610b84565b6107515760405162461bcd60e51b81526004016103cc90611af3565b61046d838383610be2565b61046d8383836040518060200160405280600081525061087b565b6000818152600260205260408120546001600160a01b0316806102995760405162461bcd60e51b8152602060048201526018602482015277115490cdcc8c4e881a5b9d985b1a59081d1bdad95b88125160421b60448201526064016103cc565b60006001600160a01b0382166108415760405162461bcd60e51b815260206004820152602960248201527f4552433732313a2061646472657373207a65726f206973206e6f7420612076616044820152683634b21037bbb732b960b91b60648201526084016103cc565b506001600160a01b031660009081526003602052604090205490565b6060600180546102ae90611a54565b610877338383610d53565b5050565b6108853383610b84565b6108a15760405162461bcd60e51b81526004016103cc90611af3565b6108ad84848484610e21565b50505050565b60606108be82610ab4565b600082815260066020526040812080546108d790611a54565b80601f016020809104026020016040519081016040528092919081815260200182805461090390611a54565b80156109505780601f1061092557610100808354040283529160200191610950565b820191906000526020600020905b81548152906001019060200180831161093357829003601f168201915b50505050509050600061096e60408051602081019091526000815290565b90508051600003610980575092915050565b8151156109b257808260405160200161099a929190611b40565b60405160208183030381529060405292505050919050565b6109bb84610e54565b949350505050565b6109cb610ec8565b6109d9600880546001019055565b60006109e460085490565b90506109f03382610f21565b610a0581610a0086868686610f3b565b610f9a565b60408051608081018252858152602080820186905281830185905260608201849052600084815260099091529190912081518190610a439082611bbd565b5060208201516001820190610a589082611bbd565b5060408201516002820190610a6d9082611bbd565b50606082015181600301559050505061046d6001600755565b6001600160a01b03918216600090815260056020908152604080832093909416825291909152205460ff1690565b6000818152600260205260409020546001600160a01b0316610b135760405162461bcd60e51b8152602060048201526018602482015277115490cdcc8c4e881a5b9d985b1a59081d1bdad95b88125160421b60448201526064016103cc565b50565b600081815260046020526040902080546001600160a01b0319166001600160a01b0384169081179091558190610b4b82610777565b6001600160a01b03167f8c5be1e5ebec7d5bd14f71427d1e84f3dd0314c0f7b2291e5b200ac8c7c3b92560405160405180910390a45050565b600080610b9083610777565b9050806001600160a01b0316846001600160a01b03161480610bb75750610bb78185610a86565b806109bb5750836001600160a01b0316610bd084610331565b6001600160a01b031614949350505050565b826001600160a01b0316610bf582610777565b6001600160a01b031614610c1b5760405162461bcd60e51b81526004016103cc90611c7d565b6001600160a01b038216610c7d5760405162461bcd60e51b8152602060048201526024808201527f4552433732313a207472616e7366657220746f20746865207a65726f206164646044820152637265737360e01b60648201526084016103cc565b610c8a838383600161102d565b826001600160a01b0316610c9d82610777565b6001600160a01b031614610cc35760405162461bcd60e51b81526004016103cc90611c7d565b600081815260046020908152604080832080546001600160a01b03199081169091556001600160a01b0387811680865260038552838620805460001901905590871680865283862080546001019055868652600290945282852080549092168417909155905184937fddf252ad1be2c89b69c2b068fc378daa952ba7f163c4a11628f55a4df523b3ef91a4505050565b816001600160a01b0316836001600160a01b031603610db45760405162461bcd60e51b815260206004820152601960248201527f4552433732313a20617070726f766520746f2063616c6c65720000000000000060448201526064016103cc565b6001600160a01b03838116600081815260056020908152604080832094871680845294825291829020805460ff191686151590811790915591519182527f17307eab39ab6107e8899845ad3d59bd9653f200f220920489ca2b5937696c31910160405180910390a3505050565b610e2c848484610be2565b610e38848484846110b5565b6108ad5760405162461bcd60e51b81526004016103cc90611cc2565b6060610e5f82610ab4565b6000610e7660408051602081019091526000815290565b90506000815111610e965760405180602001604052806000815250610ec1565b80610ea0846111b3565b604051602001610eb1929190611b40565b6040516020818303038152906040525b9392505050565b600260075403610f1a5760405162461bcd60e51b815260206004820152601f60248201527f5265656e7472616e637947756172643a207265656e7472616e742063616c6c0060448201526064016103cc565b6002600755565b610877828260405180602001604052806000815250611246565b6060600085858585604051602001610f569493929190611d14565b6040516020818303038152906040529050610f7081611279565b604051602001610f809190611e05565b604051602081830303815290604052915050949350505050565b6000828152600260205260409020546001600160a01b03166110155760405162461bcd60e51b815260206004820152602e60248201527f45524337323155524953746f726167653a2055524920736574206f66206e6f6e60448201526d32bc34b9ba32b73a103a37b5b2b760911b60648201526084016103cc565b600082815260066020526040902061046d8282611bbd565b60018111156108ad576001600160a01b03841615611073576001600160a01b0384166000908152600360205260408120805483929061106d908490611ab1565b90915550505b6001600160a01b038316156108ad576001600160a01b038316600090815260036020526040812080548392906110aa908490611a9e565b909155505050505050565b60006001600160a01b0384163b156111ab57604051630a85bd0160e11b81526001600160a01b0385169063150b7a02906110f9903390899088908890600401611e4a565b6020604051808303816000875af1925050508015611134575060408051601f3d908101601f1916820190925261113191810190611e87565b60015b611191573d808015611162576040519150601f19603f3d011682016040523d82523d6000602084013e611167565b606091505b5080516000036111895760405162461bcd60e51b81526004016103cc90611cc2565b805181602001fd5b6001600160e01b031916630a85bd0160e11b1490506109bb565b5060016109bb565b606060006111c0836113cc565b600101905060008167ffffffffffffffff8111156111e0576111e0611871565b6040519080825280601f01601f19166020018201604052801561120a576020820181803683370190505b5090508181016020015b600019016f181899199a1a9b1b9c1cb0b131b232b360811b600a86061a8153600a850494508461121457509392505050565b61125083836114a4565b61125d60008484846110b5565b61046d5760405162461bcd60e51b81526004016103cc90611cc2565b6060815160000361129857505060408051602081019091526000815290565b6000604051806060016040528060408152602001611ede60409139905060006003845160026112c79190611a9e565b6112d19190611ea4565b6112dc906004611ec6565b67ffffffffffffffff8111156112f4576112f4611871565b6040519080825280601f01601f19166020018201604052801561131e576020820181803683370190505b509050600182016020820185865187015b8082101561138a576003820191508151603f8160121c168501518453600184019350603f81600c1c168501518453600184019350603f8160061c168501518453600184019350603f811685015184535060018301925061132f565b50506003865106600181146113a657600281146113b9576113c1565b603d6001830353603d60028303536113c1565b603d60018303535b509195945050505050565b60008072184f03e93ff9f4daa797ed6e38ed64bf6a1f0160401b831061140b5772184f03e93ff9f4daa797ed6e38ed64bf6a1f0160401b830492506040015b6d04ee2d6d415b85acef81000000008310611437576d04ee2d6d415b85acef8100000000830492506020015b662386f26fc10000831061145557662386f26fc10000830492506010015b6305f5e100831061146d576305f5e100830492506008015b612710831061148157612710830492506004015b60648310611493576064830492506002015b600a83106102995760010192915050565b6001600160a01b0382166114fa5760405162461bcd60e51b815260206004820181905260248201527f4552433732313a206d696e7420746f20746865207a65726f206164647265737360448201526064016103cc565b6000818152600260205260409020546001600160a01b03161561155f5760405162461bcd60e51b815260206004820152601c60248201527f4552433732313a20746f6b656e20616c7265616479206d696e7465640000000060448201526064016103cc565b61156d60008383600161102d565b6000818152600260205260409020546001600160a01b0316156115d25760405162461bcd60e51b815260206004820152601c60248201527f4552433732313a20746f6b656e20616c7265616479206d696e7465640000000060448201526064016103cc565b6001600160a01b038216600081815260036020908152604080832080546001019055848352600290915280822080546001600160a01b0319168417905551839291907fddf252ad1be2c89b69c2b068fc378daa952ba7f163c4a11628f55a4df523b3ef908290a45050565b6001600160e01b031981168114610b1357600080fd5b60006020828403121561166557600080fd5b8135610ec18161163d565b60005b8381101561168b578181015183820152602001611673565b50506000910152565b600081518084526116ac816020860160208601611670565b601f01601f19169290920160200192915050565b602081526000610ec16020830184611694565b6000602082840312156116e557600080fd5b5035919050565b80356001600160a01b038116811461170357600080fd5b919050565b6000806040838503121561171b57600080fd5b611724836116ec565b946020939093013593505050565b60006020808301818452808551808352604092508286019150828160051b87010184880160005b838110156117d057603f1989840301855281516080815181865261177f82870182611694565b915050888201518582038a8701526117978282611694565b91505087820151858203898701526117af8282611694565b60609384015196909301959095525094870194925090860190600101611759565b509098975050505050505050565b6000806000606084860312156117f357600080fd5b6117fc846116ec565b925061180a602085016116ec565b9150604084013590509250925092565b60006020828403121561182c57600080fd5b610ec1826116ec565b6000806040838503121561184857600080fd5b611851836116ec565b91506020830135801515811461186657600080fd5b809150509250929050565b634e487b7160e01b600052604160045260246000fd5b600067ffffffffffffffff808411156118a2576118a2611871565b604051601f8501601f19908116603f011681019082821181831017156118ca576118ca611871565b816040528093508581528686860111156118e357600080fd5b858560208301376000602087830101525050509392505050565b6000806000806080858703121561191357600080fd5b61191c856116ec565b935061192a602086016116ec565b925060408501359150606085013567ffffffffffffffff81111561194d57600080fd5b8501601f8101871361195e57600080fd5b61196d87823560208401611887565b91505092959194509250565b600082601f83011261198a57600080fd5b610ec183833560208501611887565b6000806000606084860312156119ae57600080fd5b833567ffffffffffffffff808211156119c657600080fd5b6119d287838801611979565b945060208601359150808211156119e857600080fd5b6119f487838801611979565b93506040860135915080821115611a0a57600080fd5b50611a1786828701611979565b9150509250925092565b60008060408385031215611a3457600080fd5b611a3d836116ec565b9150611a4b602084016116ec565b90509250929050565b600181811c90821680611a6857607f821691505b60208210810361072557634e487b7160e01b600052602260045260246000fd5b634e487b7160e01b600052601160045260246000fd5b8082018082111561029957610299611a88565b8181038181111561029957610299611a88565b634e487b7160e01b600052603260045260246000fd5b600060018201611aec57611aec611a88565b5060010190565b6020808252602d908201527f4552433732313a2063616c6c6572206973206e6f7420746f6b656e206f776e6560408201526c1c881bdc88185c1c1c9bdd9959609a1b606082015260800190565b60008351611b52818460208801611670565b835190830190611b66818360208801611670565b01949350505050565b601f82111561046d57600081815260208120601f850160051c81016020861015611b965750805b601f850160051c820191505b81811015611bb557828155600101611ba2565b505050505050565b815167ffffffffffffffff811115611bd757611bd7611871565b611beb81611be58454611a54565b84611b6f565b602080601f831160018114611c205760008415611c085750858301515b600019600386901b1c1916600185901b178555611bb5565b600085815260208120601f198616915b82811015611c4f57888601518255948401946001909101908401611c30565b5085821015611c6d5787850151600019600388901b60f8161c191681555b5050505050600190811b01905550565b60208082526025908201527f4552433732313a207472616e736665722066726f6d20696e636f72726563742060408201526437bbb732b960d91b606082015260800190565b60208082526032908201527f4552433732313a207472616e7366657220746f206e6f6e20455243373231526560408201527131b2b4bb32b91034b6b83632b6b2b73a32b960711b606082015260800190565b607b60f81b815268113730b6b2911d101160b91b60018201528451600090611d4381600a850160208a01611670565b61088b60f21b600a918401918201819052691134b6b0b3b2911d101160b11b600c8301528651611d7a816016850160208b01611670565b60169201918201526f113232b9b1b934b83a34b7b7111d101160811b60188201528451611dae816028840160208901611670565b601160f91b910160288101919091526c113a37b5b2b724a21d111d101160991b602982015260368101848152601160f91b60208201529050611dfa60218201607d60f81b815260010190565b979650505050505050565b7f646174613a6170706c69636174696f6e2f6a736f6e3b6261736536342c000000815260008251611e3d81601d850160208701611670565b91909101601d0192915050565b6001600160a01b0385811682528416602082015260408101839052608060608201819052600090611e7d90830184611694565b9695505050505050565b600060208284031215611e9957600080fd5b8151610ec18161163d565b600082611ec157634e487b7160e01b600052601260045260246000fd5b500490565b808202811582820484141761029957610299611a8856fe4142434445464748494a4b4c4d4e4f505152535455565758595a6162636465666768696a6b6c6d6e6f707172737475767778797a303132333435363738392b2fa2646970667358221220006d2e1facf7fd20f9687ff049d2c4eca7fb7032c5ef4056969a22f5899d853864736f6c63430008110033",
    "linkReferences": {}
  },
  "methodIdentifiers": {
    "approve(address,uint256)": "095ea7b3",
    "balanceOf(address)": "70a08231",
    "fetchNfts()": "20de9a63",
    "getApproved(uint256)": "081812fc",
    "isApprovedForAll(address,address)": "e985e9c5",
    "mintNft(string,string,string)": "d846f67c",
    "name()": "06fdde03",
    "ownerOf(uint256)": "6352211e",
    "safeTransferFrom(address,address,uint256)": "42842e0e",
    "safeTransferFrom(address,address,uint256,bytes)": "b88d4fde",
    "setApprovalForAll(address,bool)": "a22cb465",
    "supportsInterface(bytes4)": "01ffc9a7",
    "symbol()": "95d89b41",
    "tokenURI(uint256)": "c87b56dd",
    "transferFrom(address,address,uint256)": "23b872dd"
  },
  "id": 34
}